:020000040800F2
:100000000006002045010008E7110008DF11000884
:10001000E3110008890D0008171C0008000000000B
:100020000000000000000000000000008513000830
:100030008D0D0008000000006D1200083D1500083D
:100040005F0100085F0100085F0100085F01000810
:100050005F0100085F010008910D00085F010008C2
:100060005F0100085F0100085F0100085F010008F0
:100070005F0100085F0100085F0100085F010008E0
:100080005F0100085F0100085F0100085F010008D0
:100090005F0100085F0100085F010008E10D000832
:1000A0005F0100085F0100085F0100085F010008B0
:1000B0005F010008A1150008F11500085F010008A4
:1000C0005F0100085F0100085F0100085F01000890
:1000D0005F01000825190008591900088D1900084A
:1000E0005F0100085F0100085F0100085F01000870
:1000F0005F0100085F0100085F0100085F01000860
:100100005F0100085F010008E91600085F010008B0
:100110005F0100085F0100085F0100085F0100083F
:100120005F0100085F0100085F0100085F0100082F
:10013000DFF80CD000F034FC0048004779290008B3
:10014000000600200648804706480047FEE7FEE715
:10015000FEE7FEE7FEE7FEE7FEE7FEE7FEE7FEE777
:10016000411500083101000840EA01039B0703D054
:1001700009E008C9121F08C0042AFAD203E011F8E6
:10018000013B00F8013B521EF9D27047D2B201E0A8
:1001900000F8012B491EFBD270470022F6E710B58C
:1001A00013460A4604461946FFF7F0FF204610BDE5
:1001B000421E12F8013F002BFBD111F8013B02F85F
:1001C000013B002BF9D1704730B505462A460B4656
:1001D00012F8010B13F8014B08B1A042F8D01CB182
:1001E000002802D06D1CF1E7284630BDF0B480EA4B
:1001F0000102D40F4200B2EB410F02D20246084680
:1002000011464A0042D0C30DDDB2C1F3C752AD1A48
:10021000202D35DAC1F3160141F4000204B1524237
:10022000C5F1200602FA06F12A411044B3EBD05F73
:1002300023D0C4B1012DA0EBC35009DCF0BC4FF0BA
:10024000004202EAC352DBB200F5000000F0EDBA52
:10025000400000F1807000EBC350A0F1807040EAD4
:10026000D170490009E0490841EAC071A0EBC350D0
:1002700000F50000400800EBC350F0BC00F0CCBA21
:100280006142012202EB4101001BF6E7F0BC70471E
:1002900081F00041AAE780F00040A7E72DE9FE4F7A
:1002A000804681EA0300C00F0C46009021F0004117
:1002B00023F00045B8EB0200A94105D24046214693
:1002C00090461C460B46024623F00040104347D0A0
:1002D000270DC7F30A00C3F30A510290401A019098
:1002E00040286BDAC3F3130040F4801B0098924659
:1002F00020B10023D2EB030A63EB0B0B01985946A4
:10030000C0F14002504600F008FA06460D4650463D
:100310005946019A00F020FA10EB080061410024D0
:1003200087EA115284EAE7731A4340D0009A62B315
:10033000019A012A4FEA075215DC001B61EB02010A
:100340004FF0004202EA0752CDE90042001C41F59D
:10035000801132462B4600F0A5FA03B0BDE8F08FBD
:1003600040462146F9E7001B61EB0201001C41F504
:10037000801300185B412018A2F5001747EB03011A
:1003800040EAD570B6196D4111E06D084FEA3606A6
:1003900045EAC0754FEA0752001B61EB0201001CE1
:1003A00041F5801149084FEA3000001951413246A9
:1003B0002B4603B0BDE8F04F00F065BA009801226B
:1003C00040000023D0EB020263EBE073009821466B
:1003D0004FEAE074B8EB000061EB0401E9E783F059
:1003E00000435BE781F0004158E72DE9FE4F81EAC9
:1003F000030404F0004421F0004100944FF0000B8E
:1004000023F0004350EA01045ED052EA03045BD0BB
:10041000C3F30A54C1F30A552C44A4F2F3340194F3
:10042000A0FB0254C1F3130141F48011C3F3130381
:1004300043F4801301FB024400FB034E840A970A35
:1004400044EA815447EA8357A4FB076802958D0A62
:1004500005FB07854FEA932C04FB0C542705029DEE
:100460004FEA065847EA1637B5EB08056EEB070C5E
:10047000870E920E47EA811742EA8312A7FB020118
:10048000B6EB0B0164EB00042B0D43EA0C335E1852
:1004900044EB1C50DA465146E7FB0201C5F3130456
:1004A0004FEA0B3343EA14534FEA0432019C43EA08
:1004B0000603A4F10C040294009CCDE900B400F002
:1004C000F1F903B0BDE8F08F00200146F9E72DE90E
:1004D000F04D81EA030404F0004B21F0004514467E
:1004E0004FF0000A23F0004150EA050220D054EA00
:1004F00001021DD0C5F30A570246C5F31303C1F329
:100500001300C1F30A5640F4801543F48013A7EB9F
:100510000608101BD64608F2FD3873EB050002D31F
:1005200008F1010801E092185B41B8F1000F03DA0D
:1005300000200146BDE8F08D00204FF480110646F2
:1005400084460EE0171B73EB050705D3121B63EB04
:10055000050306434CEA010C49084FEA30009218A3
:100560005B4150EA0107EDD152EA030012D082EA62
:10057000040083EA0501084305D0101BAB4106D2F5
:100580000122002306E000224FF0004302E06FF05A
:10059000010253101AEB06004CEB085110EB0A0055
:1005A00041EB0B01BDE8F04D00F06DB9C10F80EAE1
:1005B000E0700844CA079623002100F036B970B5F0
:1005C000C1F30A5201F000450024C1F3130140F2C7
:1005D000FF3341F480119A4201DA002070BD40F2ED
:1005E00033439A42A2F2334203DC524200F0A4F8B1
:1005F00000E090402C43F1D0404270BD00F000423A
:1006000030F000400AD0C10D01F56071C0F3160052
:1006100042EA0151C20840071143704700200146D9
:100620007047000030B5041E71F1000404DB4FF088
:100630000044404264EB0101141E73F1000405DB29
:100640001C464FF00043524263EB04038B4208BF49
:10065000824230BD01F0004330B421F0004150EA45
:10066000010206D00A0DA2F56072C1F31301002A3F
:1006700002DC30BC00207047440F44EAC104C100D2
:10068000E01830BC00EBC25000F0C6B830B50B46E5
:10069000014600202022012409E021FA02F59D42B2
:1006A00005D303FA02F5491B04FA02F52844151E86
:1006B000A2F10102F1DC30BD2DE9F05F054600201A
:1006C00092469B4688460646814640241BE02846C3
:1006D00041464746224600F02FF853465A46C01A74
:1006E000914110D311461846224600F016F82D1AF3
:1006F00067EB01084F4622460120002100F00DF86B
:1007000017EB00094E41201EA4F10104DFDC48462E
:1007100031462A464346BDE8F09F202A04DB203AB2
:1007200000FA02F1002070479140C2F1200320FA44
:1007300003F3194390407047202A04DB203A21FA42
:1007400002F00021704721FA02F3D040C2F12002EA
:100750009140084319467047202A06DBCB17203A00
:1007600041FA02F043EAE07306E041FA02F3D040B6
:10077000C2F1200291400843194670470FB400238C
:1007800000B589B00CA900910B996FF00042CB60C5
:100790001E4B06931E4B07930423CDE901321D4ADD
:1007A000089202466B46002000F092F909B05DF80D
:1007B00014FB70B586B006464FF0FF300091CDE9CE
:1007C0000101002015460C4604903246694604A8F3
:1007D000FFF7D4FF03460498211825B108B10A4653
:1007E00000E022462A6000280DD0002B02DD009890
:1007F000884208D0081B0094CDE9010432466946BE
:1008000004A8FFF7BBFF06B070BD0000090D00088B
:10081000270D0008C50900080029A8BF7047401C23
:10082000490008BF20F00100704710B4B0FA80FC06
:1008300000FA0CF050EA010404BF10BC704749B143
:10084000CCF1200421FA04F411FA0CF118BF0121B3
:1008500021430843A3EB0C01CB1D4FEA00614FEA93
:10086000102042BF002010BC704700EBC350104462
:100870000029A4BF10BC7047401C490008BF20F0ED
:10088000010010BC704710B5141E73F1000408DAA3
:10089000401C41F1000192185B411A4301D120F044
:1008A000010010BD2DE9F04D92469B4611B1B1FA01
:1008B00081F202E0B0FA80F220329046FFF72DFF7D
:1008C00004460F4640EA0A0041EA0B0153465A46E5
:1008D000084313D0114653EA010019D0C8F1400271
:1008E0005046FFF729FF05460E46504659464246F8
:1008F000FFF713FF084305D0012004E020463946E6
:10090000BDE8F08D0020054346EAE0762C433743EE
:100910000A986305E40AA0EB08000022FD0A44EAF5
:1009200047540A3002D500200146E9E701051019B5
:100930006941DDE9084500196941BDE8F04DA2E7CC
:10094000C1F30A52C1F3130140F2FF3341F48011A5
:100950009A4202DA00200146704740F233439A423D
:10096000A2F2334202DC5242FFF7E6BEFFF7D5BEE9
:1009700030B5041E71F1000404DB4FF00044404226
:1009800064EB0101141E73F1000405DB1C464FF0FB
:100990000043524263EB0403994208BF904230BDCA
:1009A000064C074D06E0E06840F0010394E80700BC
:1009B00098471034AC42F6D3FFF7BEFB90310008E5
:1009C000B0310008C0B24FF4F05100F0BDB90000E2
:1009D0002DE9FF4F087881B09946FF2805D0491CC2
:1009E0002D2804D00024002308E000230BE001247C
:1009F000F9E703EB830300EB4303491C0878FF2866
:100A0000F7D104B15B4200200090147801462D2CF0
:100A100001D02B2C04D1521C2D2C12D00024009478
:100A200000251678FF2E0ED00A24A0FB04C801FB77
:100A30000481002700FB0711521C16EB0C006941D2
:100A4000EFE70124EBE7994450EA01020ED00024BD
:100A5000AA4D2646DFF8A88200F08AF982468B4626
:100A6000B9F1000009DAC9F100071BE00198002183
:100A7000C0E9001105B0BDE8F08F074612E0F807A5
:100A800007D022462B4630464146FFF7AEFC0646CD
:100A9000884622462B4610461946FFF7A6FC044618
:100AA0000D467F10002FEAD1B9F1000F32464346C0
:100AB0005046594602DAFFF70AFD01E0FFF795FCC0
:100AC000009A0AB181F00041019AC2E90001D1E720
:100AD0002DE9FF4F1F468DB0D7E901464FF0FF3893
:100AE0002E2045464FF000090B90B9696D1C0E98F9
:100AF0008847396A824688470028F6D1BAF1FF3F15
:100B00000AD024F4D064002E11DDBAF12B0F08D0E6
:100B1000BAF12D0F0BD102E0404611B0ABE744F41F
:100B20008064B9696D1C0E9888478246761E6946B6
:100B3000600501D52D2000E02B208DF8000001F18B
:100B4000010B0DF1200809E0B9696D1C0E9888476A
:100B500082460F9844F40074761E0560002E02DD74
:100B6000BAF1300FF0D00B998A453ED144F08004A1
:100B700006E00F99681CA9F1010944F400740860AB
:100B8000B9696D1C761E0E98884782463028F0D0D1
:100B90002BE00B998A4505D1200603D444F080044C
:100BA000761E18E0504601F02BF908B30DF1130141
:100BB000761E44F400748B4508D2AAF130000BF87D
:100BC000010B200607D5A9F1010003E0200602D49D
:100BD00009F101008146A00502D50F99681C086043
:100BE000B9696D1C0E9888478246002ED1DC53E00F
:100BF000002E51DDBAF1650F02D0BAF1450F4BD18D
:100C0000A00549D5B9696D1C24F44074761E0E9870
:100C100088478246002E0CDD2B2804D0BAF12D0F18
:100C200007D144F48074B9696D1C0E9888478246D8
:100C3000761EE00501D52D2100E02B2108F8011BCF
:100C4000CDF82C8021E00DF12901761E44F40074CA
:100C500088450CD2AAF1300010F0FF0088F800009F
:100C600002D10B99884509D908F1010806E0E00591
:100C700001D5244801E042F20F708146B9696D1C2C
:100C80000E98884782460F980560002E04DD504676
:100C900001F0B6F80028D6D1F9690E988847FF20F0
:100CA0008BF8000088F800000020069007904B4663
:100CB0006A4608A906A8FFF78BFEA00502D46FF0CC
:100CC00001002AE714F0240F0AD0E00714D1DDE96F
:100CD00006123868031D3B600068C0E900120BE093
:100CE000DDE90601FFF7B6FC0146E00704D13868EC
:100CF000021D3A600068016028460EE700002440AB
:100D00000000F03FF1D8FFFF426842B1016811F8DE
:100D1000013B23B1521EC0E9001218467047012161
:100D2000C160881E704742685AB1C368016843B900
:100D300083688B4205D0491E521CC0E90012002076
:100D400070474FF0FF3070477F2801D9002208E03C
:100D5000064A02EB5002C007127800D1120902F0D5
:100D60000F02012090400840704700000831000841
:100D70000EB540F2334202920022CDE90022134622
:100D8000FFF790FD03B000BD00BFFEE77047000015
:100D900010B5012000F0C4F8D0B100200D49087052
:100DA00040210D4800F00EFA78B90C48008810B9BF
:100DB00001F012FC01E001F0E1FB0848008808B9ED
:100DC000012000E0002005490880012000F0A2F881
:100DD00010BD00000000002000100140180000209D
:100DE0002DE9F047802000F09BF800283DD08021BD
:100DF0003F4800F0E7F9012808D100213D4800F004
:100E00003CFD01213B4800F0B7FC2BE000213948B4
:100E100000F0B2FC374800F0BBFC4FF4AA7100FBB5
:100E200001F94846FFF7C2FB0446FFF7E7FB074618
:100E30000022314BFFF74BFB0546FFF70BFC2F4918
:100E4000086008460068FFF7D9FB044600222C4BD7
:100E5000FFF7E8FB03D201202A49087002E00020D6
:100E600028490870802000F055F84FF4007000F019
:100E700057F800283AD04FF400711D4800F0A2F94D
:100E8000012808D10021204800F0F7FC01211E486C
:100E900000F072FC26E000211B4800F06DFC1A48AF
:100EA00000F076FC4FF4AA7100FB01F94846FFF709
:100EB0007DFB0446FFF7A2FB074600220E4BFFF71F
:100EC00006FB0546FFF7C6FB1049086008460068A8
:100ED000FFF794FB044600220D4BFFF7A3FB01D262
:100EE00001F086FB4FF4007000F014F8BDE8F087C5
:100EF000000C0140002C01400088D3401C00002061
:100F00000000344024000020001400402000002095
:100F100000003E4001490860704700001404014091
:100F2000014600200022074B1B6803EA0102054B23
:100F300014331B680B4013B10AB1012000E00020FC
:100F40007047000000040140002123498279002AF3
:100F50003AD00A46126803689A430B461A600A1D83
:100F6000126803689A430B1D1A60027911440A68DB
:100F700003681A430A60184A0832126803689A43E1
:100F8000154B08331A601A1D126803689A43124BF6
:100F90000C331A604279102A0ED11A1F12680368A6
:100FA0001A430D4B08331A601A1D126803681A435E
:100FB000094B0C331A600DE00749427911440A6865
:100FC00003681A430A6005E0027911440A6803685D
:100FD0009A430A60704700000004014030B50022C7
:100FE0008B071C0F0F2303FA04F20B4B8C1053F8E2
:100FF00024309343084C8D1044F8253023468C1040
:1010000053F824308C07240F00FA04F42343024CD5
:101010008D1044F8253030BD080001402DE9F04125
:10102000024600250026002000230024002791F816
:1010300003C00CF00F0591F803C00CF0100CBCF1CC
:10104000000F03D091F802C04CEA050591F800C0EA
:10105000BCF1000F31D0146800202BE04FF0010CE0
:101060000CFA00F3B1F800C00CEA03069E4220D14E
:1010700083004FF00F0C0CFA03F7BC4305FA03FC96
:101080004CEA040491F803C0BCF1280F06D14FF0DC
:10109000010C0CFA00FCC2F814C00AE091F803C07D
:1010A000BCF1480F05D14FF0010C0CFA00FCC2F85E
:1010B00010C0401C0828D1D31460B1F800C0BCF1A6
:1010C000FF0F34DD546800202EE000F1080C4FF0D3
:1010D000010808FA0CF3B1F800C00CEA03069E42BE
:1010E00021D183004FF00F0C0CFA03F7BC4305FA33
:1010F00003FC4CEA040491F803C0BCF1280F05D1AD
:1011000000F1080C08FA0CF8C2F8148091F803C03A
:10111000BCF1480F07D100F1080C4FF0010808FAA4
:101120000CF8C2F81080401C0828CED35460BDE8EB
:10113000F0810000F0B50A460023002400210025BC
:1011400000F00046B6F1004F02D11D4EF16901E0FA
:101150001B4E7168C0F3034583B200F44016B6F528
:10116000401F08D121F07061154E766826F0706638
:10117000134F7E6012E000F48016B6F5801F06D192
:10118000032606FA05F4A14341F0706106E0460D1E
:10119000360103FA06F6B14341F0706122B1460D03
:1011A000360103FA06F6314300F00046B6F1004F6F
:1011B00002D1034EF16101E0014E7160F0BD00000B
:1011C000000001400246002093680B400BB1012053
:1011D00000E000207047416170470161704700BF27
:1011E000FEE700BFFEE7704770B5002100230F2225
:1011F000C47804B3154C246804F4E064C4F5E064D6
:10120000210AC1F10403CA40447804FA03F1847846
:101210001440214309010E4C0678A155047804F0CE
:101220001F050124AC4005786D11AD0005F1E025E6
:10123000C5F8004109E0047804F01F050124AC4022
:10124000044D0678761145F8264070BD0CED00E09F
:1012500000E400E080E100E002490143024A11603D
:10126000704700000000FA050CED00E07047000038
:1012700029B1064AD2690243044BDA6104E0034A09
:10128000D2698243014BDA617047000000100240CE
:1012900029B1064A92690243044B9A6104E0034A69
:1012A00092698243014B9A6170470000001002402E
:1012B00030B500210022002400232D4D6D6805F07B
:1012C0000C0121B1042905D0082923D105E0294DBD
:1012D000056022E0274D05601FE0254D6D6805F48F
:1012E0007012234D6D6805F48034022505EB92429F
:1012F0001CB9214D554305600BE01D4D6D6805F48B
:1013000000351DB11C4D5543056002E0194D554394
:10131000056002E0174D056000BF00BF144D6D6809
:1013200005F0F0010909154D6B5C0568DD4045606D
:101330000F4D6D6805F4E061090A104D6B5C45685E
:10134000DD4085600A4D6D6805F46051C90A0B4D9A
:101350006B5C4568DD40C560054D6D6805F4404136
:10136000890B074D6B5CC568B5FBF3F5056130BDB6
:101370000010024000127A0000093D000100002028
:1013800011000020704700004FF0E021096921F0B2
:1013900005014FF0E0221161C21700EB5272C2F357
:1013A000C702074B1A701946097801EB4102C2EBDC
:1013B000C1114FF6FF7202EAC101024A1180704763
:1013C000280000202A00002001461CE0204A128844
:1013D0004FF4E9635A434FF0E0235A6100229A61C7
:1013E0001A46126942F001021A6100BF4FF0E02272
:1013F000106900F001021AB100F48032002AF5D021
:10140000A1F5E96291B2B1F5E96FDFDC104A12880B
:101410004A434FF0E0235A6100229A611A4612694A
:1014200042F001021A6100BF4FF0E022106900F0A3
:1014300001021AB100F48032002AF5D04FF0E02208
:10144000126922F001024FF0E0231A617047000098
:101450002A00002010B500F001F810BD0CB50020E6
:10146000019000903348006840F4803031490860B2
:1014700000BF3048006800F4003000900198401C24
:101480000190009818B90198B0F5A06FF1D12948E2
:10149000006800F4003010B10120009001E000204D
:1014A00000900098012843D12348006840F01000C4
:1014B000214908600846006820F0030008600846DB
:1014C000006840F0020008601A4840681949486006
:1014D0000846406848600846406840F480604860BC
:1014E0000846406820F47C1048600846406840F494
:1014F000E81048600846006840F08070086000BF4F
:101500000C48006800F000700028F9D009484068D5
:1015100020F00300074948600846406840F0020098
:10152000486000BF0348406800F00C000828F9D16B
:101530000CBD000000100240002002407047000077
:1015400010B51348006840F00100114908600846D2
:101550004068104908400E494860084600680E4936
:1015600008400B4908600846006820F480200860A5
:101570000846406820F4FE0048604FF41F00886071
:10158000FFF768FF4FF000600449086010BD0000DD
:10159000001002400000FFF8FFFFF6FE08ED00E03B
:1015A00010B501210F4800F0F6F8D0B101210D4827
:1015B00000F0DFF80C480088FA280DD100200A4915
:1015C000088000F0DBFF1D2001218140074A43090C
:1015D00042F8231000BF00BF03480088401C0249A6
:1015E000088010BD000400401600002080E100E0EB
:1015F00010B50121234800F0CEF8002841D0224840
:101600000078012829D12148007818B920A001F0DC
:1016100003FD1CE01D480078012803D121A001F042
:10162000FBFC14E019480078022803D12C4801F093
:10163000F3FC0CE015480078032808D101F03AFBD0
:101640000021104800F098F80020104908700F4859
:101650000078401C0D4908700FE022480078C82827
:1016600006D100201F49087001200749087004E0D6
:101670001C480078401C1B4908700121014800F0FB
:1016800078F810BD000800402C0000203300002036
:1016900041542B435343533D2255435332220D0AA9
:1016A0000000000041542B434D47533D223030335E
:1016B0003130303335303033363030333130303311
:1016C00036303033333030333230303338303033FB
:1016D000383030333830303334220D0A0000000007
:1016E000483100082D00002010B50121164800F0F7
:1016F00052F840B30121144800F03BF81348008829
:1017000048B940211248FFF768FD4FF48071104836
:10171000FFF763FD0CE00D480088012808D1402147
:101720000B48FFF758FD4FF480710948FFF753FD50
:1017300006480088401C40F6C41190FBF1F201FB02
:1017400012000249088010BD000C00402600002055
:10175000000C014021B1028842F08002028004E0C6
:1017600002884FF67F731A4002807047CA43028294
:101770007047CA430282704721B1028842F00102D9
:10178000028004E002884FF6FE731A400280704720
:101790000146888C704730B50246002000230024A3
:1017A000158A05EA0103958905EA010413B10CB114
:1017B000012000E0002030BD1AB183890B438381F2
:1017C00002E083898B4383817047000070B5002459
:1017D00000220023058C4FF6FE7635400584028CEE
:1017E0008388048B4FF68F752C40B51E2C400D88D6
:1017F0002C43751E2A400D892A434D882A43144DD7
:10180000A8420BD0134DA84208D0134DA84205D0D2
:10181000124DA84202D0124DA84213D14FF6F775CF
:101820002A404D892A434FF6FB752A408D882A436A
:101830004FF6FF652B404FF6FF552B408D892B430C
:10184000CD892B4383800483CD888586028470BD37
:10185000002C0140003401400040014000440140A0
:10186000004801400A460021018B4FF6F7731940EA
:10187000114301837047818670478184704700005F
:10188000002202881D4B98420ED01D4B98420BD06F
:10189000B0F1804F08D01B4B984205D01A4B9842AC
:1018A00002D01A4B984204D14FF68F731A404B88DE
:1018B0001A43174B984207D0164B984204D04FF664
:1018C000FF431A40CB881A4302808B8883850B889C
:1018D00003850A4B98420BD0094B984208D00E4B17
:1018E000984205D00D4B984202D00D4B984201D141
:1018F0000B7A03860123838270470000002C01408D
:10190000003401400004004000080040000C00408A
:10191000001000400014004000400140004401401D
:101920000048014010B540F22551094800F0AFF8D9
:1019300060B1074800F066F9C4B22146054800F0DE
:1019400066F940F22551024800F079F810BD000018
:10195000003801400044004010B540F225510948CC
:1019600000F095F860B1074800F04CF9C4B2214688
:10197000054800F04CF940F22551024800F05FF8AC
:1019800010BD0000004400400038014010B540F296
:101990002551224800F07BF800283ED01F4800F077
:1019A00031F9C4B2242C02D100201D4908701C4812
:1019B00001780078401C1A4A10701A484454007884
:1019C00024281ED1174800794D281AD1154840798E
:1019D000432816D10A2C14D164211348FEF7DDFBED
:1019E0000F4802780F491048FEF7BEFB01200E4950
:1019F00081F8640000200A490870C8210948FEF7F0
:101A0000CCFB07480078C82802DBC72004490870CF
:101A100040F22551014800F012F810BD0048004086
:101A20003400002031010020A400002001F40072E5
:101A3000B2F5007F00D100BFCA430280704710B5E5
:101A40000022002340F66A14A14200D100BF0A120E
:101A500001249440A3B2DC43048010BD21B18289EB
:101A600042F40052828104E082894DF6FF731A40ED
:101A70008281704702460020B1F5007F00D100BF8F
:101A800013880B400BB1012000E00020704770B5B7
:101A90000246002400230025002040F66A16B142C9
:101AA00000D100BFC1F3421501F01F03012606FA61
:101AB00003F3012D02D19689334006E0022D02D1B5
:101AC000168A334001E0968A33400C12012606FA4A
:101AD00004F41688344013B10CB1012000E000205A
:101AE00070BDF0B50346002400260025002040F616
:101AF0006A17B94200D100BF1846C1F3421401F081
:101B00001F06012707FA06F5012C01D10C3004E06D
:101B1000022C01D1103000E014301AB107682F43B5
:101B2000076002E00768AF430760F0BD2DE9F047AA
:101B300086B005460E460024A24600BFA1460027F7
:101B4000B08900B100BF2F462C8A4CF6FF700440CC
:101B5000F08804432C82AC894EF6F3100440B08820
:101B600031890843718908430443AC81AC8A4FF63C
:101B7000FF400440B0890443AC8201A8FFF798FB02
:101B80001F48874202D1DDF810A001E0DDF80CA06B
:101B9000A88900F4004040B10AEBCA0000EB0A102B
:101BA00031684900B0FBF1F807E00AEBCA0000EB2E
:101BB0000A1031688900B0FBF1F86420B8FBF0F03E
:101BC00004012009642101FB1089A88900F4004068
:101BD00040B1322000EBC900B0FBF1F000F007008B
:101BE000044308E0322000EB09106421B0FBF1F05F
:101BF00000F00F0004432C8106B0BDE8F087000020
:101C00000038014001468888C0F308007047C1F3DE
:101C100008028280704700BFFEE700000FB4054B4A
:101C200010B503A9044A029800F0F2F810BC5DF860
:101C300014FB00005D260008380000200FB4084B9C
:101C400010B504A902AA039800F0E2F8044602A91C
:101C5000002000F074FC204610BC5DF814FB00006E
:101C60003F25000801480068704700003C00002044
:101C700002E008C8121F08C1002AFAD17047704755
:101C8000002001E001C1121F002AFBD170470000B3
:101C900001490860704700003C0000202DE9FF5F0B
:101CA000DDE90220010DDDF838B0024318D044F61A
:101CB0001050A1F2FF3141430D140F98012820D09C
:101CC000A5EB0B00401C5FEA000A4FF00004474EF2
:101CD000DFF81C91A046504616D5CAF1000728E04F
:101CE0000F98012443A2012808D0002100980F9BDF
:101CF000C0E90021C0E90243BDE8FF9F6FEA0B0184
:101D0000F4E7CBF10000DEE7074612E0F80707D062
:101D10002246334640464946FEF767FB80468946E1
:101D20002246334610461946FEF75FFB04460E4630
:101D30007F10002FEAD1DDE90201BAF1000F42461F
:101D40004B4602DAFEF751FB01E0FEF7C0FB04460A
:101D50000E460022284BFEF70BFE03D84FF0FF3053
:101D6000014607E00022254B20463146FEF796FA51
:101D7000FEF7E6FD102409E0002C0ADB0A2200230E
:101D8000FEF79AFC019B30321A55641E50EA01029C
:101D9000F2D1641C019AC4F1110314440F9A012A70
:101DA00003D0012208430DD10AE0084304D00020EB
:101DB0004FF0110B0F9080E7A3EB0B056D1E0DE0AC
:101DC0005B4504DD4FF0000205F1010504E003DA94
:101DD0004FF00002A5F10105002AECD000980F9900
:101DE000C0E90231C0E9004586E700000000244058
:101DF0000000F03F300000000000F0430000E03F32
:101E000030380A2801D201207047002070470000B6
:101E10002DE9FF4F95B09B468946064600250FE207
:101E2000252877D100242746F84A0121059400E0AF
:101E3000044316F8013F203B01FA03F01042F7D1AA
:101E400030782A2811D06FF02F033078A0F13002BB
:101E5000092A16D8059A44F0020402EB820203EB29
:101E600042021044761C0590EFE759F8042B0592C6
:101E7000002A03DA504244F40054059044F002046E
:101E8000761C30782E2816D116F8010F44F0040481
:101E90002A280DD06FF02F023078A0F13003092BE3
:101EA00009D807EB870302EB4303C718761CF3E757
:101EB00059F8047B761C30786C280FD006DC4C284F
:101EC00017D068280DD06A2814D104E0742810D0E7
:101ED0007A280FD10DE044F400140AE044F4801491
:101EE00001E044F440147278824202D104F5801477
:101EF000761C761C307866280BD013DC582877D0F7
:101F000009DC002875D04528F6D04628F4D04728AB
:101F10001AD19DE118E0632835D0642879D065286E
:101F200012D195E1702873D008DC6728F1D06928B8
:101F30006FD06E280DD06F2806D1B5E073282CD055
:101F4000752875D0782874D05A46179990476D1C1B
:101F500075E1C4F30250022809D003280DD0D9F846
:101F6000001004280DD00D6009F1040967E1D9F8CB
:101F70000010EA17C1E90052F6E7D9F800100D8009
:101F8000F2E70D70F0E719F8041B8DF8001000203F
:101F90008DF80100EA46012003E059F804AB4FF048
:101FA000FF3061074FF0000102D40DE008F101019C
:101FB0008846B9420FDA8045F8DB1AF80810002984
:101FC000F4D108E008F1010188468142FADB1AF8F1
:101FD00008100029F6D105985B46A0EB08072146BA
:101FE0003846179A00F094FA284400EB080507E0F9
:101FF0004DE029E10DE01AF8010B5A461799904778
:10200000B8F10108F7D25B4621463846179A13E12A
:1020100042E00A220092C4F302524FF0000A022A60
:1020200008D059F804CB032A4FEAEC710AD00DE02E
:1020300029E02AE009F1070121F00702F2E802C1D4
:10204000914609E00FFA8CFC4FEAEC71042A03D1A7
:102050004FFA8CFC4FEAEC71002907DA0A4600219E
:10206000DCF1000C61EB02012D2202E0220504D517
:102070002B228DF80420012203E0E20701D0202268
:10208000F7E7904659E00A2102E010220DE0102106
:102090004FF0000A00910BE010224FF0000A44F0CC
:1020A00004040827009203E008224FF0000A00927F
:1020B000C4F30252022A05D059F804CB0021032AA6
:1020C00008D009E009F1070121F00702F2E802C196
:1020D000914605E01FFA8CFC042A01D10CF0FF0C9C
:1020E0004FF00008220728D5702806D0009B83F007
:1020F000100353EA0A0305D00EE040228DF80420B5
:10210000012208E05CEA010206D030228DF80420AA
:102110008DF8050002229046009B83F0080353EAE5
:102120000A030AD15CEA010201D1620705D5302217
:102130008DF804204FF001087F1E582804D034A0E9
:1021400003900EA802900DE036A0F9E753466046D2
:10215000009AFEF7B1FA84460398825C0298401E0A
:10216000029002705CEA0100F0D1029806A9081AF8
:1021700000F1200A600702D524F4803400E0012732
:10218000574502DDA7EB0A0000E0002000EB0A0142
:10219000009005984144401A0590E00306D45B4640
:1021A0002146179A059800F0B3F90544002706E088
:1021B00001A85A46C05D179990476D1C7F1C474582
:1021C000F6DBE0030CD55B462146179A059800F034
:1021D0009FF9054404E030205A46179990476D1C3A
:1021E0000099481E00900029F5DC08E00298029949
:1021F0005A460078491C0291179990476D1CBAF114
:102200000001AAF1010AF1DC65E1000009280100E2
:10221000303132333435363738396162636465665C
:10222000000000003031323334353637383941421E
:10223000434445460000000000F058F90544761C70
:10224000307800287FF4ECAD19B02846BDE8F08F57
:10225000620700D4062709F1070222F0070CFCE808
:102260000223E14603F000485FEA080C02D00FF2B7
:10227000702C0DE05FEA045C02D50FF2682C07E0D9
:102280005FEAC47C02D00FF2602C01E0AFF2700C68
:102290004FF0FF3823F00043CDF850C065280CD034
:1022A00006DC452809D046281DD047283DD13DE011
:1022B000662818D067287ED138E00021112F01DB75
:1022C000112000E0781CCDE9000106A90EA8FFF757
:1022D000E5FCDDE90F010E9A03910021009207F160
:1022E000010A04914DE04FF000400097CDE9011044
:1022F00006A90EA8FFF7D2FCDDE90F0203920E9BA0
:1023000011990022DDF80CA00093049211B9791CF8
:1023100000EB010AB7EB0A0004D4C0F1FF3007F16B
:10232000010A0490AAEB0700019044E0012F00DAB3
:1023300001270021112F01DD112000E03846CDE9F1
:10234000000106A90EA8FFF7A9FCDDE90F010E9A0E
:102350000391002104910092BA4621070CD40399FD
:10236000514500DA8A46BAF1010F05DD009AAAF15B
:102370000101515C302908D0B84202DA10F1040F93
:1023800006DA0121CDE9011015E0AAF10101E9E722
:10239000002805DC049901440491AAEB000102E045
:1023A000411C514500DD8A460499401A401C0190A9
:1023B0004FF000400290200704D40198504501DB03
:1023C000CDF8048000208DF84F0002980DF14F07E2
:1023D000B0F1004F25D02B200E9002984FF002084C
:1023E00000280CDA404202902D200E9007E00A21CE
:1023F0000298FEF74BF93031029007F8011DB8F151
:102400000001A8F10108F2DC02980028EFD1791E42
:102410000E980870307800F0200040F0450007F872
:10242000020D12A8C01B00F107081498007800B133
:10243000012000EB0A01019801EBE071059841448D
:10244000401A401E0590E00306D45B462146179AC9
:10245000059800F05DF805441498007818B15A46C4
:10246000179990476D1CE00324D55B462146179AC7
:10247000059800F04DF805441CE00498002807DB9F
:10248000DDE90301884203DD0098405C179901E013
:10249000179930205A469047049805F10105401CD1
:1024A00004900198401E019004D12E205A4617999D
:1024B00090476D1CBAF10001AAF1010ADDDC05E0CC
:1024C00017F8010B5A46179990476D1CB8F1000197
:1024D000A8F10108F4DC5B462146179A0598ABE6A3
:1024E0002D0000002B000000200000002DE9F0412D
:1024F000044600251E461746880404D405E03946E4
:102500002020B0476D1C641EF9D52846BDE8F08137
:102510002DE9F041044600251E469046C80301D52A
:10252000302700E02027880404D505E041463846DE
:10253000B0476D1C641EF9D52846BDE8F0810A68D5
:10254000531C0B601070704710B500F083FD10BD78
:1025500030B583B00446FFF785FB05460020CDE982
:102560000000024621466846FEF723F92846FFF799
:102570008FFBDDE9000103B030BD000010B540F273
:102580009E710348FFF777F900F098F910BD00003D
:102590000004004008B501210848FEF7CBFD1820D3
:1025A0008DF803004020ADF8000002208DF80200F5
:1025B00069460348FEF732FD08BD0000000C1A0012
:1025C0000010014010B5FFF7E5FF00F0E1FB00F05F
:1025D00019FCFFF7D3FF10BD10B540F2B631034828
:1025E000FFF749F900F074F910BD00000004004045
:1025F00010B5FFF7F1FF0020064908801D200121DA
:1026000081404209920002F1E022C2F8001100BFAD
:1026100010BD00001600002008B506208DF800004F
:1026200003208DF8010002208DF8020001208DF8B2
:1026300003006846FEF7D8FD08BD08B517208DF8E1
:10264000000003208DF8010002208DF80200012017
:102650008DF803006846FEF7C7FD08BD70B5044657
:102660000D46E1B20548FFF7D2FA00BF80210348CA
:10267000FFF700FA0028F9D0204670BD003801406D
:102680001CB507210120FEF7A9FC80200090002046
:102690008DF8040010208DF8050001208DF806004B
:1026A0006846FEF751FC1CBD08B54020ADF800009F
:1026B00003208DF8020010208DF8030069460948B8
:1026C000FEF7ACFC40210748FEF785FD8020ADF801
:1026D000000004208DF8030069460248FEF79EFCC6
:1026E00008BD0000000C014010B5FFF7DDFF00F051
:1026F00037FB00F0A1FB00F0BBFBFFF79EFF0121C1
:102700000248FFF739F8FFF7BBFF10BD000C00408F
:102710001CB509210120FEF761FC4FF40070009008
:1027200000208DF8040010208DF8050001208DF8A0
:1027300006006846FEF708FC1CBD000008B54FF413
:102740008070ADF8000003208DF8020010208DF895
:10275000030069460948FEF761FC4FF480710748A1
:10276000FEF739FD4FF48070ADF8000004208DF8BD
:10277000030069460148FEF751FC08BD000C01400A
:1027800010B5FFF7DBFF00F083FBFFF7C1FF10BDC3
:1027900010B500F019F800F003F8FFF73DFF10BD89
:1027A0001CB500210846FEF719FC0120009000200E
:1027B0008DF804000C208DF8050001208DF806002E
:1027C0006846FEF7C1FB1CBD08B50120ADF800004E
:1027D00004208DF8030069460148FEF71FFC08BD80
:1027E000000801402DE9F04F89B0142104A8FDF73D
:1027F000D4FC1E48FFF7ACFE0446FDF7E0FE642162
:1028000090FBF1F003900398FDF7D0FE029017487B
:10281000801CFFF79DFE06460022154BFDF757FE74
:102820000446FDF717FF01900299FDF7DFFC834690
:10283000FDF7E4FE804642460B460EA104A8FFF7D2
:10284000FDF90DF1100A0AE09AF8000000F03CFAD8
:10285000044621460948FDF7ABFC0AF1010A9AF843
:1028600000000028F0D109B0BDE8F08F150100206C
:1028700000004E40252E356600000000400000207C
:1028800008B54FF48070ADF8000010208DF80300FB
:1028900003208DF8020069460148FEF7BFFB08BD22
:1028A0000008014010B5FFF7EBFF4FF480710248BC
:1028B000FEF793FC10BD00000008014010B54FF476
:1028C00080710248FEF789FC10BD0000000801403D
:1028D00010B54FF480710248FEF77DFC10BD00007A
:1028E000000801402DE9FF5F002003901D48FFF71D
:1028F0002FFE0446FDF763FE642190FBF1F0029089
:102900000298FDF753FE01901648C01CFFF720FE09
:1029100006460022144BFDF7DAFD0446FDF79AFE49
:1029200000900199FDF762FC8346FDF767FE804643
:1029300042460B460DA103A8FFF780F90DF10C0AE2
:102940000AE09AF8000000F0BFF904462146094861
:10295000FDF72EFC0AF1010A9AF800000028F0D1D8
:10296000BDE8FF9F2201002000004E40252E356665
:1029700000000000720000200024002500F0FCF898
:102980004820FEF701FD4FF4A060FEF765FCFFF75D
:1029900089FFFFF7FDFEFFF715FE00F0ADFA00F02E
:1029A000F9F8FFF7D1FDFFF79FFEFFF7E9FE00BF43
:1029B0004FF4FA70FEF708FD18A0FFF72FF9224830
:1029C0000068FDF71BFE064632460B461FA0FFF7C8
:1029D00025F924480068FDF711FE064632460B46ED
:1029E00021A0FFF71BF92648007878B92548007820
:1029F00001280AD1601CC4B2142C07D10024012084
:102A00001F49087000F0CAF800E00024042D02D12C
:102A1000002500F039F8681CC5B2C9E72D2D2D2D11
:102A20002D2D2D2D2D2D2D2D2D2D2D2D2D2D2D2DD6
:102A30002D2D2D2D2D2D2D2D2D2D2D2D2D2D2D2DC6
:102A40002D2D2D2D2D0A00002000002064697374A7
:102A5000616E636532203D20252E326620636D2035
:102A60000A0000001C00002064697374616E6365D5
:102A700031203D20252E326620636D200A000000A3
:102A80000000002024000020F8B50026384890F807
:102A9000640000286AD00020354981F8640000BF36
:102AA00061E04EB933A13248FDF78EFB041E58D1C8
:102AB0002F4981F88C0058E0641C2EA12046FDF7B8
:102AC00083FB051E48D0072E2ED2DFE806F02D042A
:102AD0000B11181F26002A1B214625486630FDF7DA
:102AE00043FB22E02A1B21466846FDF73DFB1CE024
:102AF0002A1B21461E487130FDF736FB15E02A1BC4
:102B000021461B487C30FDF72FFB0EE02A1B214697
:102B100017487E30FDF728FB07E02A1B21461448A2
:102B20008A30FDF721FB00E000BF00BF2C460120EA
:102B30000F4981F865009DF80000412803D101206C
:102B400081F88C0007E09DF80000562803D1002092
:102B5000074981F88C0004E00020054981F88C00C9
:102B600003E0701CC6B2062E9BDD00BFF8BD00005E
:102B7000A40000202C00000010B5012144F61D0027
:102B8000FEF786FB01210248FEF772FB10BD000034
:102B90003E00060010B500F005FA10BD00B5B9B052
:102BA000C82107A8FDF7F9FA0020059006900390C8
:102BB0000490204890F8640001281BD11D4890F82B
:102BC0006500012816D11B4890F88C00012811D10E
:102BD000FFF708FEFFF786FE164991F88A0000F01D
:102BE00073F800680590134991F87C0000F06CF8C8
:102BF00000680390104803A9104B05AACDE9001006
:102C00000FA107A8FFF71AF816A000F005FA322066
:102C1000FEF7DAFB18A000F0FFF93220FEF7D4FB34
:102C200007A800F0F9F93220FEF7CEFB00F042F8D9
:102C300039B000BDA4000020400000207200002038
:102C4000257325733030323025732573353738338B
:102C500035373345363837363544463236454531D3
:102C60000000000041542B435343533D225543532E
:102C700032220D0A0000000041542B434D47533DC2
:102C8000223030333130303335303033363030333A
:102C9000313030333630303333303033323030331C
:102CA00038303033383030333830303334220D0A56
:102CB0000000000008B503A000680090684600F01E
:102CC000ABF908BD1A0000000146302909DB39299B
:102CD00007DC3020214A107050703320907010466D
:102CE000C17041290ADB492908DC30201B4A1070D9
:102CF000507034209070A1F11000D0704A290ADB86
:102D00004F2908DC3020154A107050703420907024
:102D1000A1F10900D07050290ADB592908DC3020C4
:102D20000E4A1070507035209070A1F12000D070C4
:102D30005A2907D13020094A107050703520907000
:102D40004120D0702E2907D13020044A10705070D5
:102D5000322090704520D070004870472E0000202F
:102D60000EB54720ADF800004FF6FF70ADF8040037
:102D70000020ADF80200ADF8060069460348FEF7F2
:102D80007FFD00210148FEF7F7FC0EBD002C01403D
:102D900000B587B00020ADF81600ADF8120044F67B
:102DA0001F60ADF814004720ADF8100004A91448C6
:102DB000FEF766FD01211248FEF7D8FC01221146FC
:102DC0000F48FEF7F9FC6020ADF800000120ADF8D7
:102DD00002000020ADF80600ADF80800694608487A
:102DE000FEF7F4FC08210648FEF73CFD01210448EB
:102DF000FEF7B0FC01210248FEF7BEFC07B000BDA3
:102E00000004004008B51D208DF8000001208DF859
:102E1000030003208DF801008DF802006846FEF7DC
:102E2000E3F91D2001218140024A430942F82310A1
:102E300000BF08BD80E100E00EB50020ADF806003F
:102E4000ADF802004720ADF800001320ADF80400F3
:102E500069460648FEF714FD01210448FEF786FC8A
:102E6000012211460148FEF7A7FC0EBD000C0040F0
:102E700008B532208DF8000001208DF803000320F2
:102E80008DF801008DF802006846FEF7ADF908BD27
:102E90000EB54720ADF800004FF6FF70ADF8040006
:102EA0000020ADF80200ADF8060069460348FEF7C1
:102EB000E7FC00210148FEF75FFC0EBD0014004056
:102EC00008B518208DF803004FF40070ADF800002D
:102ED00003208DF8020069460648FEF79FF804209B
:102EE0008DF803000002ADF8000069460148FEF7C6
:102EF00095F808BD000801401FB5FFF7E1FF4FF44A
:102F0000E13000900020ADF80C000C20ADF80A0074
:102F10000020ADF80800ADF80600ADF804006946E1
:102F20000948FEF703FE00F011F840210648FEF7BD
:102F30007DFD012240F225510348FEF7D2FD01211B
:102F40000148FEF78BFD1FBD0038014008B5252064
:102F50008DF8000001208DF803008DF801008DF838
:102F600002006846FEF740F908BD000008B51820C9
:102F70008DF803000420ADF8000003208DF8020056
:102F800069460748FEF74AF804208DF80300082038
:102F9000ADF8000069460248FEF740F808BD0000A1
:102FA000000801401FB5FFF7E1FF4FF4E13000904A
:102FB0000020ADF80C000C20ADF80A000020ADF8A0
:102FC0000800ADF80600ADF8040069460948FEF7B0
:102FD000ADFD00F011F840210648FEF727FD012263
:102FE00040F225510348FEF77CFD01210148FEF720
:102FF00035FD1FBD0044004008B526208DF80000B7
:1030000001208DF803008DF8010002208DF80200E8
:103010006846FEF7E9F808BD70B5044640210C4843
:10302000FEF704FD00250FE0615D0948FEF7EFFDA6
:1030300000BF80210648FEF71DFD0028F9D0402181
:103040000348FEF7F3FC6D1C605D0028ECD170BDF9
:103050000044004000B587B001210820FEF718F9B0
:1030600001218804FEF704F918208DF81B004FF4A5
:103070008060ADF8180003208DF81A0006A92048DA
:10308000FDF7CCFF04208DF81B004002ADF81800BE
:1030900006A91B48FDF7C2FF4FF41650029000200E
:1030A000ADF814000C20ADF812000020ADF81000AF
:1030B000ADF80E00ADF80C0002A91248FEF736FD7F
:1030C00027208DF8040001208DF8070002208DF8DC
:1030D000050003208DF8060001A8FEF785F84021C1
:1030E0000848FEF7A3FC012240F225510548FEF7EF
:1030F000F8FC01210348FEF7B1FC07B000BD000059
:10310000000C014000480040DDDDDDDDDCBBBBDD47
:10311000DDDDDDDDDDDDDDDD988888888888888877
:103120007777777777888888855555566666666697
:103130006666666666688888833333322222222276
:10314000222222222228888D3533313734454143CB
:10315000303032303030333130303331303033365C
:103160003030334130303332303033383030343532
:103170003030323030303333303033393030334127
:1031800030303335303033343030344500000000D7
:10319000B03100080000002040000000701C000852
:1031A000F031000840000020C0050000801C00082D
:1031B00000000000000102030401020304060708E6
:1031C00009020406080000000000000000000000E2
:1031D00000000000000000000000000000000000EF
:1031E00000000000000000000000000000000000DF
:0400000508000131BD
:00000001FF
